{
	"data": {
		"bytecode": {
			"linkReferences": {},
			"object": "608060405234801561001057600080fd5b50610657806100206000396000f3fe608060405234801561001057600080fd5b50600436106100575760003560e01c80634558f7f51461005c578063b5fdeb231461007a578063c4784fd414610098578063e21f37ce146100b4578063f0f9b1d1146100d2575b600080fd5b6100646100ee565b6040516100719190610465565b60405180910390f35b61008261017c565b60405161008f9190610465565b60405180910390f35b6100b260048036038101906100ad91906103e3565b61020e565b005b6100bc610228565b6040516100c99190610465565b60405180910390f35b6100ec60048036038101906100e791906103e3565b6102b6565b005b600180546100fb9061053b565b80601f01602080910402602001604051908101604052809291908181526020018280546101279061053b565b80156101745780601f1061014957610100808354040283529160200191610174565b820191906000526020600020905b81548152906001019060200180831161015757829003601f168201915b505050505081565b60606000805461018b9061053b565b80601f01602080910402602001604051908101604052809291908181526020018280546101b79061053b565b80156102045780601f106101d957610100808354040283529160200191610204565b820191906000526020600020905b8154815290600101906020018083116101e757829003601f168201915b5050505050905090565b80600090805190602001906102249291906102d0565b5050565b600080546102359061053b565b80601f01602080910402602001604051908101604052809291908181526020018280546102619061053b565b80156102ae5780601f10610283576101008083540402835291602001916102ae565b820191906000526020600020905b81548152906001019060200180831161029157829003601f168201915b505050505081565b80600190805190602001906102cc9291906102d0565b5050565b8280546102dc9061053b565b90600052602060002090601f0160209004810192826102fe5760008555610345565b82601f1061031757805160ff1916838001178555610345565b82800160010185558215610345579182015b82811115610344578251825591602001919060010190610329565b5b5090506103529190610356565b5090565b5b8082111561036f576000816000905550600101610357565b5090565b6000610386610381846104ac565b610487565b9050828152602081018484840111156103a2576103a1610601565b5b6103ad8482856104f9565b509392505050565b600082601f8301126103ca576103c96105fc565b5b81356103da848260208601610373565b91505092915050565b6000602082840312156103f9576103f861060b565b5b600082013567ffffffffffffffff81111561041757610416610606565b5b610423848285016103b5565b91505092915050565b6000610437826104dd565b61044181856104e8565b9350610451818560208601610508565b61045a81610610565b840191505092915050565b6000602082019050818103600083015261047f818461042c565b905092915050565b60006104916104a2565b905061049d828261056d565b919050565b6000604051905090565b600067ffffffffffffffff8211156104c7576104c66105cd565b5b6104d082610610565b9050602081019050919050565b600081519050919050565b600082825260208201905092915050565b82818337600083830152505050565b60005b8381101561052657808201518184015260208101905061050b565b83811115610535576000848401525b50505050565b6000600282049050600182168061055357607f821691505b602082108114156105675761056661059e565b5b50919050565b61057682610610565b810181811067ffffffffffffffff82111715610595576105946105cd565b5b80604052505050565b7f4e487b7100000000000000000000000000000000000000000000000000000000600052602260045260246000fd5b7f4e487b7100000000000000000000000000000000000000000000000000000000600052604160045260246000fd5b600080fd5b600080fd5b600080fd5b600080fd5b6000601f19601f830116905091905056fea264697066735822122025aa367e4051eae1a3f8a2c5743728b04706650202be069332ebb3c4717f8d2b64736f6c63430008070033",
			"opcodes": "PUSH1 0x80 PUSH1 0x40 MSTORE CALLVALUE DUP1 ISZERO PUSH2 0x10 JUMPI PUSH1 0x0 DUP1 REVERT JUMPDEST POP PUSH2 0x657 DUP1 PUSH2 0x20 PUSH1 0x0 CODECOPY PUSH1 0x0 RETURN INVALID PUSH1 0x80 PUSH1 0x40 MSTORE CALLVALUE DUP1 ISZERO PUSH2 0x10 JUMPI PUSH1 0x0 DUP1 REVERT JUMPDEST POP PUSH1 0x4 CALLDATASIZE LT PUSH2 0x57 JUMPI PUSH1 0x0 CALLDATALOAD PUSH1 0xE0 SHR DUP1 PUSH4 0x4558F7F5 EQ PUSH2 0x5C JUMPI DUP1 PUSH4 0xB5FDEB23 EQ PUSH2 0x7A JUMPI DUP1 PUSH4 0xC4784FD4 EQ PUSH2 0x98 JUMPI DUP1 PUSH4 0xE21F37CE EQ PUSH2 0xB4 JUMPI DUP1 PUSH4 0xF0F9B1D1 EQ PUSH2 0xD2 JUMPI JUMPDEST PUSH1 0x0 DUP1 REVERT JUMPDEST PUSH2 0x64 PUSH2 0xEE JUMP JUMPDEST PUSH1 0x40 MLOAD PUSH2 0x71 SWAP2 SWAP1 PUSH2 0x465 JUMP JUMPDEST PUSH1 0x40 MLOAD DUP1 SWAP2 SUB SWAP1 RETURN JUMPDEST PUSH2 0x82 PUSH2 0x17C JUMP JUMPDEST PUSH1 0x40 MLOAD PUSH2 0x8F SWAP2 SWAP1 PUSH2 0x465 JUMP JUMPDEST PUSH1 0x40 MLOAD DUP1 SWAP2 SUB SWAP1 RETURN JUMPDEST PUSH2 0xB2 PUSH1 0x4 DUP1 CALLDATASIZE SUB DUP2 ADD SWAP1 PUSH2 0xAD SWAP2 SWAP1 PUSH2 0x3E3 JUMP JUMPDEST PUSH2 0x20E JUMP JUMPDEST STOP JUMPDEST PUSH2 0xBC PUSH2 0x228 JUMP JUMPDEST PUSH1 0x40 MLOAD PUSH2 0xC9 SWAP2 SWAP1 PUSH2 0x465 JUMP JUMPDEST PUSH1 0x40 MLOAD DUP1 SWAP2 SUB SWAP1 RETURN JUMPDEST PUSH2 0xEC PUSH1 0x4 DUP1 CALLDATASIZE SUB DUP2 ADD SWAP1 PUSH2 0xE7 SWAP2 SWAP1 PUSH2 0x3E3 JUMP JUMPDEST PUSH2 0x2B6 JUMP JUMPDEST STOP JUMPDEST PUSH1 0x1 DUP1 SLOAD PUSH2 0xFB SWAP1 PUSH2 0x53B JUMP JUMPDEST DUP1 PUSH1 0x1F ADD PUSH1 0x20 DUP1 SWAP2 DIV MUL PUSH1 0x20 ADD PUSH1 0x40 MLOAD SWAP1 DUP2 ADD PUSH1 0x40 MSTORE DUP1 SWAP3 SWAP2 SWAP1 DUP2 DUP2 MSTORE PUSH1 0x20 ADD DUP3 DUP1 SLOAD PUSH2 0x127 SWAP1 PUSH2 0x53B JUMP JUMPDEST DUP1 ISZERO PUSH2 0x174 JUMPI DUP1 PUSH1 0x1F LT PUSH2 0x149 JUMPI PUSH2 0x100 DUP1 DUP4 SLOAD DIV MUL DUP4 MSTORE SWAP2 PUSH1 0x20 ADD SWAP2 PUSH2 0x174 JUMP JUMPDEST DUP3 ADD SWAP2 SWAP1 PUSH1 0x0 MSTORE PUSH1 0x20 PUSH1 0x0 KECCAK256 SWAP1 JUMPDEST DUP2 SLOAD DUP2 MSTORE SWAP1 PUSH1 0x1 ADD SWAP1 PUSH1 0x20 ADD DUP1 DUP4 GT PUSH2 0x157 JUMPI DUP3 SWAP1 SUB PUSH1 0x1F AND DUP3 ADD SWAP2 JUMPDEST POP POP POP POP POP DUP2 JUMP JUMPDEST PUSH1 0x60 PUSH1 0x0 DUP1 SLOAD PUSH2 0x18B SWAP1 PUSH2 0x53B JUMP JUMPDEST DUP1 PUSH1 0x1F ADD PUSH1 0x20 DUP1 SWAP2 DIV MUL PUSH1 0x20 ADD PUSH1 0x40 MLOAD SWAP1 DUP2 ADD PUSH1 0x40 MSTORE DUP1 SWAP3 SWAP2 SWAP1 DUP2 DUP2 MSTORE PUSH1 0x20 ADD DUP3 DUP1 SLOAD PUSH2 0x1B7 SWAP1 PUSH2 0x53B JUMP JUMPDEST DUP1 ISZERO PUSH2 0x204 JUMPI DUP1 PUSH1 0x1F LT PUSH2 0x1D9 JUMPI PUSH2 0x100 DUP1 DUP4 SLOAD DIV MUL DUP4 MSTORE SWAP2 PUSH1 0x20 ADD SWAP2 PUSH2 0x204 JUMP JUMPDEST DUP3 ADD SWAP2 SWAP1 PUSH1 0x0 MSTORE PUSH1 0x20 PUSH1 0x0 KECCAK256 SWAP1 JUMPDEST DUP2 SLOAD DUP2 MSTORE SWAP1 PUSH1 0x1 ADD SWAP1 PUSH1 0x20 ADD DUP1 DUP4 GT PUSH2 0x1E7 JUMPI DUP3 SWAP1 SUB PUSH1 0x1F AND DUP3 ADD SWAP2 JUMPDEST POP POP POP POP POP SWAP1 POP SWAP1 JUMP JUMPDEST DUP1 PUSH1 0x0 SWAP1 DUP1 MLOAD SWAP1 PUSH1 0x20 ADD SWAP1 PUSH2 0x224 SWAP3 SWAP2 SWAP1 PUSH2 0x2D0 JUMP JUMPDEST POP POP JUMP JUMPDEST PUSH1 0x0 DUP1 SLOAD PUSH2 0x235 SWAP1 PUSH2 0x53B JUMP JUMPDEST DUP1 PUSH1 0x1F ADD PUSH1 0x20 DUP1 SWAP2 DIV MUL PUSH1 0x20 ADD PUSH1 0x40 MLOAD SWAP1 DUP2 ADD PUSH1 0x40 MSTORE DUP1 SWAP3 SWAP2 SWAP1 DUP2 DUP2 MSTORE PUSH1 0x20 ADD DUP3 DUP1 SLOAD PUSH2 0x261 SWAP1 PUSH2 0x53B JUMP JUMPDEST DUP1 ISZERO PUSH2 0x2AE JUMPI DUP1 PUSH1 0x1F LT PUSH2 0x283 JUMPI PUSH2 0x100 DUP1 DUP4 SLOAD DIV MUL DUP4 MSTORE SWAP2 PUSH1 0x20 ADD SWAP2 PUSH2 0x2AE JUMP JUMPDEST DUP3 ADD SWAP2 SWAP1 PUSH1 0x0 MSTORE PUSH1 0x20 PUSH1 0x0 KECCAK256 SWAP1 JUMPDEST DUP2 SLOAD DUP2 MSTORE SWAP1 PUSH1 0x1 ADD SWAP1 PUSH1 0x20 ADD DUP1 DUP4 GT PUSH2 0x291 JUMPI DUP3 SWAP1 SUB PUSH1 0x1F AND DUP3 ADD SWAP2 JUMPDEST POP POP POP POP POP DUP2 JUMP JUMPDEST DUP1 PUSH1 0x1 SWAP1 DUP1 MLOAD SWAP1 PUSH1 0x20 ADD SWAP1 PUSH2 0x2CC SWAP3 SWAP2 SWAP1 PUSH2 0x2D0 JUMP JUMPDEST POP POP JUMP JUMPDEST DUP3 DUP1 SLOAD PUSH2 0x2DC SWAP1 PUSH2 0x53B JUMP JUMPDEST SWAP1 PUSH1 0x0 MSTORE PUSH1 0x20 PUSH1 0x0 KECCAK256 SWAP1 PUSH1 0x1F ADD PUSH1 0x20 SWAP1 DIV DUP2 ADD SWAP3 DUP3 PUSH2 0x2FE JUMPI PUSH1 0x0 DUP6 SSTORE PUSH2 0x345 JUMP JUMPDEST DUP3 PUSH1 0x1F LT PUSH2 0x317 JUMPI DUP1 MLOAD PUSH1 0xFF NOT AND DUP4 DUP1 ADD OR DUP6 SSTORE PUSH2 0x345 JUMP JUMPDEST DUP3 DUP1 ADD PUSH1 0x1 ADD DUP6 SSTORE DUP3 ISZERO PUSH2 0x345 JUMPI SWAP2 DUP3 ADD JUMPDEST DUP3 DUP2 GT ISZERO PUSH2 0x344 JUMPI DUP3 MLOAD DUP3 SSTORE SWAP2 PUSH1 0x20 ADD SWAP2 SWAP1 PUSH1 0x1 ADD SWAP1 PUSH2 0x329 JUMP JUMPDEST JUMPDEST POP SWAP1 POP PUSH2 0x352 SWAP2 SWAP1 PUSH2 0x356 JUMP JUMPDEST POP SWAP1 JUMP JUMPDEST JUMPDEST DUP1 DUP3 GT ISZERO PUSH2 0x36F JUMPI PUSH1 0x0 DUP2 PUSH1 0x0 SWAP1 SSTORE POP PUSH1 0x1 ADD PUSH2 0x357 JUMP JUMPDEST POP SWAP1 JUMP JUMPDEST PUSH1 0x0 PUSH2 0x386 PUSH2 0x381 DUP5 PUSH2 0x4AC JUMP JUMPDEST PUSH2 0x487 JUMP JUMPDEST SWAP1 POP DUP3 DUP2 MSTORE PUSH1 0x20 DUP2 ADD DUP5 DUP5 DUP5 ADD GT ISZERO PUSH2 0x3A2 JUMPI PUSH2 0x3A1 PUSH2 0x601 JUMP JUMPDEST JUMPDEST PUSH2 0x3AD DUP5 DUP3 DUP6 PUSH2 0x4F9 JUMP JUMPDEST POP SWAP4 SWAP3 POP POP POP JUMP JUMPDEST PUSH1 0x0 DUP3 PUSH1 0x1F DUP4 ADD SLT PUSH2 0x3CA JUMPI PUSH2 0x3C9 PUSH2 0x5FC JUMP JUMPDEST JUMPDEST DUP2 CALLDATALOAD PUSH2 0x3DA DUP5 DUP3 PUSH1 0x20 DUP7 ADD PUSH2 0x373 JUMP JUMPDEST SWAP2 POP POP SWAP3 SWAP2 POP POP JUMP JUMPDEST PUSH1 0x0 PUSH1 0x20 DUP3 DUP5 SUB SLT ISZERO PUSH2 0x3F9 JUMPI PUSH2 0x3F8 PUSH2 0x60B JUMP JUMPDEST JUMPDEST PUSH1 0x0 DUP3 ADD CALLDATALOAD PUSH8 0xFFFFFFFFFFFFFFFF DUP2 GT ISZERO PUSH2 0x417 JUMPI PUSH2 0x416 PUSH2 0x606 JUMP JUMPDEST JUMPDEST PUSH2 0x423 DUP5 DUP3 DUP6 ADD PUSH2 0x3B5 JUMP JUMPDEST SWAP2 POP POP SWAP3 SWAP2 POP POP JUMP JUMPDEST PUSH1 0x0 PUSH2 0x437 DUP3 PUSH2 0x4DD JUMP JUMPDEST PUSH2 0x441 DUP2 DUP6 PUSH2 0x4E8 JUMP JUMPDEST SWAP4 POP PUSH2 0x451 DUP2 DUP6 PUSH1 0x20 DUP7 ADD PUSH2 0x508 JUMP JUMPDEST PUSH2 0x45A DUP2 PUSH2 0x610 JUMP JUMPDEST DUP5 ADD SWAP2 POP POP SWAP3 SWAP2 POP POP JUMP JUMPDEST PUSH1 0x0 PUSH1 0x20 DUP3 ADD SWAP1 POP DUP2 DUP2 SUB PUSH1 0x0 DUP4 ADD MSTORE PUSH2 0x47F DUP2 DUP5 PUSH2 0x42C JUMP JUMPDEST SWAP1 POP SWAP3 SWAP2 POP POP JUMP JUMPDEST PUSH1 0x0 PUSH2 0x491 PUSH2 0x4A2 JUMP JUMPDEST SWAP1 POP PUSH2 0x49D DUP3 DUP3 PUSH2 0x56D JUMP JUMPDEST SWAP2 SWAP1 POP JUMP JUMPDEST PUSH1 0x0 PUSH1 0x40 MLOAD SWAP1 POP SWAP1 JUMP JUMPDEST PUSH1 0x0 PUSH8 0xFFFFFFFFFFFFFFFF DUP3 GT ISZERO PUSH2 0x4C7 JUMPI PUSH2 0x4C6 PUSH2 0x5CD JUMP JUMPDEST JUMPDEST PUSH2 0x4D0 DUP3 PUSH2 0x610 JUMP JUMPDEST SWAP1 POP PUSH1 0x20 DUP2 ADD SWAP1 POP SWAP2 SWAP1 POP JUMP JUMPDEST PUSH1 0x0 DUP2 MLOAD SWAP1 POP SWAP2 SWAP1 POP JUMP JUMPDEST PUSH1 0x0 DUP3 DUP3 MSTORE PUSH1 0x20 DUP3 ADD SWAP1 POP SWAP3 SWAP2 POP POP JUMP JUMPDEST DUP3 DUP2 DUP4 CALLDATACOPY PUSH1 0x0 DUP4 DUP4 ADD MSTORE POP POP POP JUMP JUMPDEST PUSH1 0x0 JUMPDEST DUP4 DUP2 LT ISZERO PUSH2 0x526 JUMPI DUP1 DUP3 ADD MLOAD DUP2 DUP5 ADD MSTORE PUSH1 0x20 DUP2 ADD SWAP1 POP PUSH2 0x50B JUMP JUMPDEST DUP4 DUP2 GT ISZERO PUSH2 0x535 JUMPI PUSH1 0x0 DUP5 DUP5 ADD MSTORE JUMPDEST POP POP POP POP JUMP JUMPDEST PUSH1 0x0 PUSH1 0x2 DUP3 DIV SWAP1 POP PUSH1 0x1 DUP3 AND DUP1 PUSH2 0x553 JUMPI PUSH1 0x7F DUP3 AND SWAP2 POP JUMPDEST PUSH1 0x20 DUP3 LT DUP2 EQ ISZERO PUSH2 0x567 JUMPI PUSH2 0x566 PUSH2 0x59E JUMP JUMPDEST JUMPDEST POP SWAP2 SWAP1 POP JUMP JUMPDEST PUSH2 0x576 DUP3 PUSH2 0x610 JUMP JUMPDEST DUP2 ADD DUP2 DUP2 LT PUSH8 0xFFFFFFFFFFFFFFFF DUP3 GT OR ISZERO PUSH2 0x595 JUMPI PUSH2 0x594 PUSH2 0x5CD JUMP JUMPDEST JUMPDEST DUP1 PUSH1 0x40 MSTORE POP POP POP JUMP JUMPDEST PUSH32 0x4E487B7100000000000000000000000000000000000000000000000000000000 PUSH1 0x0 MSTORE PUSH1 0x22 PUSH1 0x4 MSTORE PUSH1 0x24 PUSH1 0x0 REVERT JUMPDEST PUSH32 0x4E487B7100000000000000000000000000000000000000000000000000000000 PUSH1 0x0 MSTORE PUSH1 0x41 PUSH1 0x4 MSTORE PUSH1 0x24 PUSH1 0x0 REVERT JUMPDEST PUSH1 0x0 DUP1 REVERT JUMPDEST PUSH1 0x0 DUP1 REVERT JUMPDEST PUSH1 0x0 DUP1 REVERT JUMPDEST PUSH1 0x0 DUP1 REVERT JUMPDEST PUSH1 0x0 PUSH1 0x1F NOT PUSH1 0x1F DUP4 ADD AND SWAP1 POP SWAP2 SWAP1 POP JUMP INVALID LOG2 PUSH5 0x6970667358 0x22 SLT KECCAK256 0x25 0xAA CALLDATASIZE PUSH31 0x4051EAE1A3F8A2C5743728B04706650202BE069332EBB3C4717F8D2B64736F PUSH13 0x63430008070033000000000000 "
		},
		"gasEstimates": {
			"creation": {
				"codeDepositCost": "324600",
				"executionCost": "362",
				"totalCost": "324962"
			},
			"external": {
				"amessage()": "infinite",
				"getMsg()": "infinite",
				"inbox(string)": "infinite",
				"message()": "infinite",
				"setMsg(string)": "infinite"
			}
		},
		"methodIdentifiers": {
			"amessage()": "4558f7f5",
			"getMsg()": "b5fdeb23",
			"inbox(string)": "f0f9b1d1",
			"message()": "e21f37ce",
			"setMsg(string)": "c4784fd4"
		}
	},
	"abi": [
		{
			"inputs": [],
			"name": "amessage",
			"outputs": [
				{
					"internalType": "string",
					"name": "",
					"type": "string"
				}
			],
			"stateMutability": "view",
			"type": "function"
		},
		{
			"inputs": [],
			"name": "getMsg",
			"outputs": [
				{
					"internalType": "string",
					"name": "",
					"type": "string"
				}
			],
			"stateMutability": "view",
			"type": "function"
		},
		{
			"inputs": [
				{
					"internalType": "string",
					"name": "initialMessage",
					"type": "string"
				}
			],
			"name": "inbox",
			"outputs": [],
			"stateMutability": "nonpayable",
			"type": "function"
		},
		{
			"inputs": [],
			"name": "message",
			"outputs": [
				{
					"internalType": "string",
					"name": "",
					"type": "string"
				}
			],
			"stateMutability": "view",
			"type": "function"
		},
		{
			"inputs": [
				{
					"internalType": "string",
					"name": "newMessage",
					"type": "string"
				}
			],
			"name": "setMsg",
			"outputs": [],
			"stateMutability": "nonpayable",
			"type": "function"
		}
	]
}